{
  "_format": "hh-sol-artifact-1",
  "contractName": "Ethtoken",
  "sourceName": "contracts/ethtoken.sol",
  "abi": [
    {
      "inputs": [],
      "stateMutability": "nonpayable",
      "type": "constructor"
    },
    {
      "anonymous": false,
      "inputs": [
        {
          "indexed": true,
          "internalType": "address",
          "name": "owner",
          "type": "address"
        },
        {
          "indexed": true,
          "internalType": "address",
          "name": "spender",
          "type": "address"
        },
        {
          "indexed": false,
          "internalType": "uint256",
          "name": "value",
          "type": "uint256"
        }
      ],
      "name": "Approval",
      "type": "event"
    },
    {
      "anonymous": false,
      "inputs": [
        {
          "indexed": true,
          "internalType": "address",
          "name": "from",
          "type": "address"
        },
        {
          "indexed": true,
          "internalType": "address",
          "name": "to",
          "type": "address"
        },
        {
          "indexed": false,
          "internalType": "uint256",
          "name": "value",
          "type": "uint256"
        }
      ],
      "name": "Transfer",
      "type": "event"
    },
    {
      "inputs": [],
      "name": "DOMAIN_SEPARATOR",
      "outputs": [
        {
          "internalType": "bytes32",
          "name": "",
          "type": "bytes32"
        }
      ],
      "stateMutability": "view",
      "type": "function"
    },
    {
      "inputs": [
        {
          "internalType": "address",
          "name": "owner",
          "type": "address"
        },
        {
          "internalType": "address",
          "name": "spender",
          "type": "address"
        }
      ],
      "name": "allowance",
      "outputs": [
        {
          "internalType": "uint256",
          "name": "",
          "type": "uint256"
        }
      ],
      "stateMutability": "view",
      "type": "function"
    },
    {
      "inputs": [
        {
          "internalType": "address",
          "name": "spender",
          "type": "address"
        },
        {
          "internalType": "uint256",
          "name": "amount",
          "type": "uint256"
        }
      ],
      "name": "approve",
      "outputs": [
        {
          "internalType": "bool",
          "name": "",
          "type": "bool"
        }
      ],
      "stateMutability": "nonpayable",
      "type": "function"
    },
    {
      "inputs": [
        {
          "internalType": "address",
          "name": "account",
          "type": "address"
        }
      ],
      "name": "balanceOf",
      "outputs": [
        {
          "internalType": "uint256",
          "name": "",
          "type": "uint256"
        }
      ],
      "stateMutability": "view",
      "type": "function"
    },
    {
      "inputs": [],
      "name": "decimals",
      "outputs": [
        {
          "internalType": "uint8",
          "name": "",
          "type": "uint8"
        }
      ],
      "stateMutability": "view",
      "type": "function"
    },
    {
      "inputs": [
        {
          "internalType": "address",
          "name": "spender",
          "type": "address"
        },
        {
          "internalType": "uint256",
          "name": "subtractedValue",
          "type": "uint256"
        }
      ],
      "name": "decreaseAllowance",
      "outputs": [
        {
          "internalType": "bool",
          "name": "",
          "type": "bool"
        }
      ],
      "stateMutability": "nonpayable",
      "type": "function"
    },
    {
      "inputs": [
        {
          "internalType": "address",
          "name": "spender",
          "type": "address"
        },
        {
          "internalType": "uint256",
          "name": "addedValue",
          "type": "uint256"
        }
      ],
      "name": "increaseAllowance",
      "outputs": [
        {
          "internalType": "bool",
          "name": "",
          "type": "bool"
        }
      ],
      "stateMutability": "nonpayable",
      "type": "function"
    },
    {
      "inputs": [],
      "name": "name",
      "outputs": [
        {
          "internalType": "string",
          "name": "",
          "type": "string"
        }
      ],
      "stateMutability": "view",
      "type": "function"
    },
    {
      "inputs": [
        {
          "internalType": "address",
          "name": "owner",
          "type": "address"
        }
      ],
      "name": "nonces",
      "outputs": [
        {
          "internalType": "uint256",
          "name": "",
          "type": "uint256"
        }
      ],
      "stateMutability": "view",
      "type": "function"
    },
    {
      "inputs": [
        {
          "internalType": "address",
          "name": "owner",
          "type": "address"
        },
        {
          "internalType": "address",
          "name": "spender",
          "type": "address"
        },
        {
          "internalType": "uint256",
          "name": "value",
          "type": "uint256"
        },
        {
          "internalType": "uint256",
          "name": "deadline",
          "type": "uint256"
        },
        {
          "internalType": "uint8",
          "name": "v",
          "type": "uint8"
        },
        {
          "internalType": "bytes32",
          "name": "r",
          "type": "bytes32"
        },
        {
          "internalType": "bytes32",
          "name": "s",
          "type": "bytes32"
        }
      ],
      "name": "permit",
      "outputs": [],
      "stateMutability": "nonpayable",
      "type": "function"
    },
    {
      "inputs": [],
      "name": "symbol",
      "outputs": [
        {
          "internalType": "string",
          "name": "",
          "type": "string"
        }
      ],
      "stateMutability": "view",
      "type": "function"
    },
    {
      "inputs": [],
      "name": "totalSupply",
      "outputs": [
        {
          "internalType": "uint256",
          "name": "",
          "type": "uint256"
        }
      ],
      "stateMutability": "view",
      "type": "function"
    },
    {
      "inputs": [
        {
          "internalType": "address",
          "name": "to",
          "type": "address"
        },
        {
          "internalType": "uint256",
          "name": "amount",
          "type": "uint256"
        }
      ],
      "name": "transfer",
      "outputs": [
        {
          "internalType": "bool",
          "name": "",
          "type": "bool"
        }
      ],
      "stateMutability": "nonpayable",
      "type": "function"
    },
    {
      "inputs": [
        {
          "internalType": "address",
          "name": "from",
          "type": "address"
        },
        {
          "internalType": "address",
          "name": "to",
          "type": "address"
        },
        {
          "internalType": "uint256",
          "name": "amount",
          "type": "uint256"
        }
      ],
      "name": "transferFrom",
      "outputs": [
        {
          "internalType": "bool",
          "name": "",
          "type": "bool"
        }
      ],
      "stateMutability": "nonpayable",
      "type": "function"
    }
  ],
  "bytecode": "0x6101406040523480156200001257600080fd5b506040518060400160405280600881526020017f457468746f6b656e000000000000000000000000000000000000000000000000815250806040518060400160405280600181526020017f31000000000000000000000000000000000000000000000000000000000000008152506040518060400160405280600881526020017f457468746f6b656e0000000000000000000000000000000000000000000000008152506040518060400160405280600481526020017f6445544800000000000000000000000000000000000000000000000000000000815250816003908051906020019062000104929190620003d5565b5080600490805190602001906200011d929190620003d5565b50505060008280519060200120905060008280519060200120905060007f8b73c3c69bb8fe3d512ecc4cf759cc79239f7b179b0ffacaa9a75d522b39400f90508260e081815250508161010081815250504660a08181525050620001898184846200021860201b60201c565b608081815250503073ffffffffffffffffffffffffffffffffffffffff1660c08173ffffffffffffffffffffffffffffffffffffffff16815250508061012081815250505050505050506200021233620001e86200025460201b60201c565b600a620001f691906200061f565b620186a062000206919062000670565b6200025d60201b60201c565b62000901565b600083838346306040516020016200023595949392919062000742565b6040516020818303038152906040528051906020012090509392505050565b60006012905090565b600073ffffffffffffffffffffffffffffffffffffffff168273ffffffffffffffffffffffffffffffffffffffff161415620002d0576040517f08c379a0000000000000000000000000000000000000000000000000000000008152600401620002c79062000800565b60405180910390fd5b620002e460008383620003cb60201b60201c565b8060026000828254620002f8919062000822565b92505081905550806000808473ffffffffffffffffffffffffffffffffffffffff1673ffffffffffffffffffffffffffffffffffffffff168152602001908152602001600020600082825401925050819055508173ffffffffffffffffffffffffffffffffffffffff16600073ffffffffffffffffffffffffffffffffffffffff167fddf252ad1be2c89b69c2b068fc378daa952ba7f163c4a11628f55a4df523b3ef83604051620003ab91906200087f565b60405180910390a3620003c760008383620003d060201b60201c565b5050565b505050565b505050565b828054620003e390620008cb565b90600052602060002090601f01602090048101928262000407576000855562000453565b82601f106200042257805160ff191683800117855562000453565b8280016001018555821562000453579182015b828111156200045257825182559160200191906001019062000435565b5b50905062000462919062000466565b5090565b5b808211156200048157600081600090555060010162000467565b5090565b7f4e487b7100000000000000000000000000000000000000000000000000000000600052601160045260246000fd5b60008160011c9050919050565b6000808291508390505b60018511156200051357808604811115620004eb57620004ea62000485565b5b6001851615620004fb5780820291505b80810290506200050b85620004b4565b9450620004cb565b94509492505050565b6000826200052e576001905062000601565b816200053e576000905062000601565b8160018114620005575760028114620005625762000598565b600191505062000601565b60ff84111562000577576200057662000485565b5b8360020a91508482111562000591576200059062000485565b5b5062000601565b5060208310610133831016604e8410600b8410161715620005d25782820a905083811115620005cc57620005cb62000485565b5b62000601565b620005e18484846001620004c1565b92509050818404811115620005fb57620005fa62000485565b5b81810290505b9392505050565b6000819050919050565b600060ff82169050919050565b60006200062c8262000608565b9150620006398362000612565b9250620006687fffffffffffffffffffffffffffffffffffffffffffffffffffffffffffffffff84846200051c565b905092915050565b60006200067d8262000608565b91506200068a8362000608565b9250817fffffffffffffffffffffffffffffffffffffffffffffffffffffffffffffffff0483118215151615620006c657620006c562000485565b5b828202905092915050565b6000819050919050565b620006e681620006d1565b82525050565b620006f78162000608565b82525050565b600073ffffffffffffffffffffffffffffffffffffffff82169050919050565b60006200072a82620006fd565b9050919050565b6200073c816200071d565b82525050565b600060a082019050620007596000830188620006db565b620007686020830187620006db565b620007776040830186620006db565b620007866060830185620006ec565b62000795608083018462000731565b9695505050505050565b600082825260208201905092915050565b7f45524332303a206d696e7420746f20746865207a65726f206164647265737300600082015250565b6000620007e8601f836200079f565b9150620007f582620007b0565b602082019050919050565b600060208201905081810360008301526200081b81620007d9565b9050919050565b60006200082f8262000608565b91506200083c8362000608565b9250827fffffffffffffffffffffffffffffffffffffffffffffffffffffffffffffffff0382111562000874576200087362000485565b5b828201905092915050565b6000602082019050620008966000830184620006ec565b92915050565b7f4e487b7100000000000000000000000000000000000000000000000000000000600052602260045260246000fd5b60006002820490506001821680620008e457607f821691505b60208210811415620008fb57620008fa6200089c565b5b50919050565b60805160a05160c05160e0516101005161012051611ea0620009516000396000610d7001526000610db201526000610d9101526000610cc601526000610d1c01526000610d450152611ea06000f3fe608060405234801561001057600080fd5b50600436106100ea5760003560e01c806370a082311161008c578063a457c2d711610066578063a457c2d714610275578063a9059cbb146102a5578063d505accf146102d5578063dd62ed3e146102f1576100ea565b806370a08231146101f75780637ecebe001461022757806395d89b4114610257576100ea565b806323b872dd116100c857806323b872dd1461015b578063313ce5671461018b5780633644e515146101a957806339509351146101c7576100ea565b806306fdde03146100ef578063095ea7b31461010d57806318160ddd1461013d575b600080fd5b6100f7610321565b6040516101049190611204565b60405180910390f35b610127600480360381019061012291906112bf565b6103b3565b604051610134919061131a565b60405180910390f35b6101456103d6565b6040516101529190611344565b60405180910390f35b6101756004803603810190610170919061135f565b6103e0565b604051610182919061131a565b60405180910390f35b61019361040f565b6040516101a091906113ce565b60405180910390f35b6101b1610418565b6040516101be9190611402565b60405180910390f35b6101e160048036038101906101dc91906112bf565b610427565b6040516101ee919061131a565b60405180910390f35b610211600480360381019061020c919061141d565b61045e565b60405161021e9190611344565b60405180910390f35b610241600480360381019061023c919061141d565b6104a6565b60405161024e9190611344565b60405180910390f35b61025f6104f6565b60405161026c9190611204565b60405180910390f35b61028f600480360381019061028a91906112bf565b610588565b60405161029c919061131a565b60405180910390f35b6102bf60048036038101906102ba91906112bf565b6105ff565b6040516102cc919061131a565b60405180910390f35b6102ef60048036038101906102ea91906114a2565b610622565b005b61030b60048036038101906103069190611544565b610764565b6040516103189190611344565b60405180910390f35b606060038054610330906115b3565b80601f016020809104026020016040519081016040528092919081815260200182805461035c906115b3565b80156103a95780601f1061037e576101008083540402835291602001916103a9565b820191906000526020600020905b81548152906001019060200180831161038c57829003601f168201915b5050505050905090565b6000806103be6107eb565b90506103cb8185856107f3565b600191505092915050565b6000600254905090565b6000806103eb6107eb565b90506103f88582856109be565b610403858585610a4a565b60019150509392505050565b60006012905090565b6000610422610cc2565b905090565b6000806104326107eb565b90506104538185856104448589610764565b61044e9190611614565b6107f3565b600191505092915050565b60008060008373ffffffffffffffffffffffffffffffffffffffff1673ffffffffffffffffffffffffffffffffffffffff168152602001908152602001600020549050919050565b60006104ef600560008473ffffffffffffffffffffffffffffffffffffffff1673ffffffffffffffffffffffffffffffffffffffff168152602001908152602001600020610ddc565b9050919050565b606060048054610505906115b3565b80601f0160208091040260200160405190810160405280929190818152602001828054610531906115b3565b801561057e5780601f106105535761010080835404028352916020019161057e565b820191906000526020600020905b81548152906001019060200180831161056157829003601f168201915b5050505050905090565b6000806105936107eb565b905060006105a18286610764565b9050838110156105e6576040517f08c379a00000000000000000000000000000000000000000000000000000000081526004016105dd906116dc565b60405180910390fd5b6105f382868684036107f3565b60019250505092915050565b60008061060a6107eb565b9050610617818585610a4a565b600191505092915050565b83421115610665576040517f08c379a000000000000000000000000000000000000000000000000000000000815260040161065c90611748565b60405180910390fd5b60007f6e71edae12b1b97f4d1f60370fef10105fa2faae0126114a169c64845d6126c98888886106948c610dea565b896040516020016106aa96959493929190611777565b60405160208183030381529060405280519060200120905060006106cd82610e48565b905060006106dd82878787610e62565b90508973ffffffffffffffffffffffffffffffffffffffff168173ffffffffffffffffffffffffffffffffffffffff161461074d576040517f08c379a000000000000000000000000000000000000000000000000000000000815260040161074490611824565b60405180910390fd5b6107588a8a8a6107f3565b50505050505050505050565b6000600160008473ffffffffffffffffffffffffffffffffffffffff1673ffffffffffffffffffffffffffffffffffffffff16815260200190815260200160002060008373ffffffffffffffffffffffffffffffffffffffff1673ffffffffffffffffffffffffffffffffffffffff16815260200190815260200160002054905092915050565b600033905090565b600073ffffffffffffffffffffffffffffffffffffffff168373ffffffffffffffffffffffffffffffffffffffff161415610863576040517f08c379a000000000000000000000000000000000000000000000000000000000815260040161085a906118b6565b60405180910390fd5b600073ffffffffffffffffffffffffffffffffffffffff168273ffffffffffffffffffffffffffffffffffffffff1614156108d3576040517f08c379a00000000000000000000000000000000000000000000000000000000081526004016108ca90611948565b60405180910390fd5b80600160008573ffffffffffffffffffffffffffffffffffffffff1673ffffffffffffffffffffffffffffffffffffffff16815260200190815260200160002060008473ffffffffffffffffffffffffffffffffffffffff1673ffffffffffffffffffffffffffffffffffffffff168152602001908152602001600020819055508173ffffffffffffffffffffffffffffffffffffffff168373ffffffffffffffffffffffffffffffffffffffff167f8c5be1e5ebec7d5bd14f71427d1e84f3dd0314c0f7b2291e5b200ac8c7c3b925836040516109b19190611344565b60405180910390a3505050565b60006109ca8484610764565b90507fffffffffffffffffffffffffffffffffffffffffffffffffffffffffffffffff8114610a445781811015610a36576040517f08c379a0000000000000000000000000000000000000000000000000000000008152600401610a2d906119b4565b60405180910390fd5b610a4384848484036107f3565b5b50505050565b600073ffffffffffffffffffffffffffffffffffffffff168373ffffffffffffffffffffffffffffffffffffffff161415610aba576040517f08c379a0000000000000000000000000000000000000000000000000000000008152600401610ab190611a46565b60405180910390fd5b600073ffffffffffffffffffffffffffffffffffffffff168273ffffffffffffffffffffffffffffffffffffffff161415610b2a576040517f08c379a0000000000000000000000000000000000000000000000000000000008152600401610b2190611ad8565b60405180910390fd5b610b35838383610e8d565b60008060008573ffffffffffffffffffffffffffffffffffffffff1673ffffffffffffffffffffffffffffffffffffffff16815260200190815260200160002054905081811015610bbb576040517f08c379a0000000000000000000000000000000000000000000000000000000008152600401610bb290611b6a565b60405180910390fd5b8181036000808673ffffffffffffffffffffffffffffffffffffffff1673ffffffffffffffffffffffffffffffffffffffff16815260200190815260200160002081905550816000808573ffffffffffffffffffffffffffffffffffffffff1673ffffffffffffffffffffffffffffffffffffffff168152602001908152602001600020600082825401925050819055508273ffffffffffffffffffffffffffffffffffffffff168473ffffffffffffffffffffffffffffffffffffffff167fddf252ad1be2c89b69c2b068fc378daa952ba7f163c4a11628f55a4df523b3ef84604051610ca99190611344565b60405180910390a3610cbc848484610e92565b50505050565b60007f000000000000000000000000000000000000000000000000000000000000000073ffffffffffffffffffffffffffffffffffffffff163073ffffffffffffffffffffffffffffffffffffffff16148015610d3e57507f000000000000000000000000000000000000000000000000000000000000000046145b15610d6b577f00000000000000000000000000000000000000000000000000000000000000009050610dd9565b610dd67f00000000000000000000000000000000000000000000000000000000000000007f00000000000000000000000000000000000000000000000000000000000000007f0000000000000000000000000000000000000000000000000000000000000000610e97565b90505b90565b600081600001549050919050565b600080600560008473ffffffffffffffffffffffffffffffffffffffff1673ffffffffffffffffffffffffffffffffffffffff1681526020019081526020016000209050610e3781610ddc565b9150610e4281610ed1565b50919050565b6000610e5b610e55610cc2565b83610ee7565b9050919050565b6000806000610e7387878787610f1a565b91509150610e8081610ffd565b8192505050949350505050565b505050565b505050565b60008383834630604051602001610eb2959493929190611b8a565b6040516020818303038152906040528051906020012090509392505050565b6001816000016000828254019250508190555050565b60008282604051602001610efc929190611c55565b60405160208183030381529060405280519060200120905092915050565b6000807f7fffffffffffffffffffffffffffffff5d576e7357a4501ddfe92f46681b20a08360001c1115610f55576000600391509150610ff4565b600060018787878760405160008152602001604052604051610f7a9493929190611c8c565b6020604051602081039080840390855afa158015610f9c573d6000803e3d6000fd5b505050602060405103519050600073ffffffffffffffffffffffffffffffffffffffff168173ffffffffffffffffffffffffffffffffffffffff161415610feb57600060019250925050610ff4565b80600092509250505b94509492505050565b6000600481111561101157611010611cd1565b5b81600481111561102457611023611cd1565b5b141561102f57611168565b6001600481111561104357611042611cd1565b5b81600481111561105657611055611cd1565b5b1415611097576040517f08c379a000000000000000000000000000000000000000000000000000000000815260040161108e90611d4c565b60405180910390fd5b600260048111156110ab576110aa611cd1565b5b8160048111156110be576110bd611cd1565b5b14156110ff576040517f08c379a00000000000000000000000000000000000000000000000000000000081526004016110f690611db8565b60405180910390fd5b6003600481111561111357611112611cd1565b5b81600481111561112657611125611cd1565b5b1415611167576040517f08c379a000000000000000000000000000000000000000000000000000000000815260040161115e90611e4a565b60405180910390fd5b5b50565b600081519050919050565b600082825260208201905092915050565b60005b838110156111a557808201518184015260208101905061118a565b838111156111b4576000848401525b50505050565b6000601f19601f8301169050919050565b60006111d68261116b565b6111e08185611176565b93506111f0818560208601611187565b6111f9816111ba565b840191505092915050565b6000602082019050818103600083015261121e81846111cb565b905092915050565b600080fd5b600073ffffffffffffffffffffffffffffffffffffffff82169050919050565b60006112568261122b565b9050919050565b6112668161124b565b811461127157600080fd5b50565b6000813590506112838161125d565b92915050565b6000819050919050565b61129c81611289565b81146112a757600080fd5b50565b6000813590506112b981611293565b92915050565b600080604083850312156112d6576112d5611226565b5b60006112e485828601611274565b92505060206112f5858286016112aa565b9150509250929050565b60008115159050919050565b611314816112ff565b82525050565b600060208201905061132f600083018461130b565b92915050565b61133e81611289565b82525050565b60006020820190506113596000830184611335565b92915050565b60008060006060848603121561137857611377611226565b5b600061138686828701611274565b935050602061139786828701611274565b92505060406113a8868287016112aa565b9150509250925092565b600060ff82169050919050565b6113c8816113b2565b82525050565b60006020820190506113e360008301846113bf565b92915050565b6000819050919050565b6113fc816113e9565b82525050565b600060208201905061141760008301846113f3565b92915050565b60006020828403121561143357611432611226565b5b600061144184828501611274565b91505092915050565b611453816113b2565b811461145e57600080fd5b50565b6000813590506114708161144a565b92915050565b61147f816113e9565b811461148a57600080fd5b50565b60008135905061149c81611476565b92915050565b600080600080600080600060e0888a0312156114c1576114c0611226565b5b60006114cf8a828b01611274565b97505060206114e08a828b01611274565b96505060406114f18a828b016112aa565b95505060606115028a828b016112aa565b94505060806115138a828b01611461565b93505060a06115248a828b0161148d565b92505060c06115358a828b0161148d565b91505092959891949750929550565b6000806040838503121561155b5761155a611226565b5b600061156985828601611274565b925050602061157a85828601611274565b9150509250929050565b7f4e487b7100000000000000000000000000000000000000000000000000000000600052602260045260246000fd5b600060028204905060018216806115cb57607f821691505b602082108114156115df576115de611584565b5b50919050565b7f4e487b7100000000000000000000000000000000000000000000000000000000600052601160045260246000fd5b600061161f82611289565b915061162a83611289565b9250827fffffffffffffffffffffffffffffffffffffffffffffffffffffffffffffffff0382111561165f5761165e6115e5565b5b828201905092915050565b7f45524332303a2064656372656173656420616c6c6f77616e63652062656c6f7760008201527f207a65726f000000000000000000000000000000000000000000000000000000602082015250565b60006116c6602583611176565b91506116d18261166a565b604082019050919050565b600060208201905081810360008301526116f5816116b9565b9050919050565b7f45524332305065726d69743a206578706972656420646561646c696e65000000600082015250565b6000611732601d83611176565b915061173d826116fc565b602082019050919050565b6000602082019050818103600083015261176181611725565b9050919050565b6117718161124b565b82525050565b600060c08201905061178c60008301896113f3565b6117996020830188611768565b6117a66040830187611768565b6117b36060830186611335565b6117c06080830185611335565b6117cd60a0830184611335565b979650505050505050565b7f45524332305065726d69743a20696e76616c6964207369676e61747572650000600082015250565b600061180e601e83611176565b9150611819826117d8565b602082019050919050565b6000602082019050818103600083015261183d81611801565b9050919050565b7f45524332303a20617070726f76652066726f6d20746865207a65726f2061646460008201527f7265737300000000000000000000000000000000000000000000000000000000602082015250565b60006118a0602483611176565b91506118ab82611844565b604082019050919050565b600060208201905081810360008301526118cf81611893565b9050919050565b7f45524332303a20617070726f766520746f20746865207a65726f20616464726560008201527f7373000000000000000000000000000000000000000000000000000000000000602082015250565b6000611932602283611176565b915061193d826118d6565b604082019050919050565b6000602082019050818103600083015261196181611925565b9050919050565b7f45524332303a20696e73756666696369656e7420616c6c6f77616e6365000000600082015250565b600061199e601d83611176565b91506119a982611968565b602082019050919050565b600060208201905081810360008301526119cd81611991565b9050919050565b7f45524332303a207472616e736665722066726f6d20746865207a65726f20616460008201527f6472657373000000000000000000000000000000000000000000000000000000602082015250565b6000611a30602583611176565b9150611a3b826119d4565b604082019050919050565b60006020820190508181036000830152611a5f81611a23565b9050919050565b7f45524332303a207472616e7366657220746f20746865207a65726f206164647260008201527f6573730000000000000000000000000000000000000000000000000000000000602082015250565b6000611ac2602383611176565b9150611acd82611a66565b604082019050919050565b60006020820190508181036000830152611af181611ab5565b9050919050565b7f45524332303a207472616e7366657220616d6f756e742065786365656473206260008201527f616c616e63650000000000000000000000000000000000000000000000000000602082015250565b6000611b54602683611176565b9150611b5f82611af8565b604082019050919050565b60006020820190508181036000830152611b8381611b47565b9050919050565b600060a082019050611b9f60008301886113f3565b611bac60208301876113f3565b611bb960408301866113f3565b611bc66060830185611335565b611bd36080830184611768565b9695505050505050565b600081905092915050565b7f1901000000000000000000000000000000000000000000000000000000000000600082015250565b6000611c1e600283611bdd565b9150611c2982611be8565b600282019050919050565b6000819050919050565b611c4f611c4a826113e9565b611c34565b82525050565b6000611c6082611c11565b9150611c6c8285611c3e565b602082019150611c7c8284611c3e565b6020820191508190509392505050565b6000608082019050611ca160008301876113f3565b611cae60208301866113bf565b611cbb60408301856113f3565b611cc860608301846113f3565b95945050505050565b7f4e487b7100000000000000000000000000000000000000000000000000000000600052602160045260246000fd5b7f45434453413a20696e76616c6964207369676e61747572650000000000000000600082015250565b6000611d36601883611176565b9150611d4182611d00565b602082019050919050565b60006020820190508181036000830152611d6581611d29565b9050919050565b7f45434453413a20696e76616c6964207369676e6174757265206c656e67746800600082015250565b6000611da2601f83611176565b9150611dad82611d6c565b602082019050919050565b60006020820190508181036000830152611dd181611d95565b9050919050565b7f45434453413a20696e76616c6964207369676e6174757265202773272076616c60008201527f7565000000000000000000000000000000000000000000000000000000000000602082015250565b6000611e34602283611176565b9150611e3f82611dd8565b604082019050919050565b60006020820190508181036000830152611e6381611e27565b905091905056fea26469706673582212209078df666d6a359a12a52aebd980be6f975fb9dd19c924547f7e8444fb04ac6164736f6c63430008090033",
  "linkReferences": {},
  "deployedLinkReferences": {}
}